{
  "contractName": "Decentragram",
  "abi": [
    {
      "anonymous": false,
      "inputs": [
        {
          "indexed": false,
          "internalType": "uint256",
          "name": "id",
          "type": "uint256"
        },
        {
          "indexed": false,
          "internalType": "string",
          "name": "hash",
          "type": "string"
        },
        {
          "indexed": false,
          "internalType": "string",
          "name": "description",
          "type": "string"
        },
        {
          "indexed": false,
          "internalType": "uint256",
          "name": "tipAmount",
          "type": "uint256"
        },
        {
          "indexed": false,
          "internalType": "address payable",
          "name": "author",
          "type": "address"
        }
      ],
      "name": "ImageCreated",
      "type": "event"
    },
    {
      "anonymous": false,
      "inputs": [
        {
          "indexed": false,
          "internalType": "uint256",
          "name": "id",
          "type": "uint256"
        },
        {
          "indexed": false,
          "internalType": "string",
          "name": "hash",
          "type": "string"
        },
        {
          "indexed": false,
          "internalType": "string",
          "name": "description",
          "type": "string"
        },
        {
          "indexed": false,
          "internalType": "uint256",
          "name": "tipAmount",
          "type": "uint256"
        },
        {
          "indexed": false,
          "internalType": "address payable",
          "name": "author",
          "type": "address"
        }
      ],
      "name": "ImageTipped",
      "type": "event"
    },
    {
      "constant": true,
      "inputs": [],
      "name": "imageCount",
      "outputs": [
        {
          "internalType": "uint256",
          "name": "",
          "type": "uint256"
        }
      ],
      "payable": false,
      "stateMutability": "view",
      "type": "function"
    },
    {
      "constant": true,
      "inputs": [
        {
          "internalType": "uint256",
          "name": "",
          "type": "uint256"
        }
      ],
      "name": "images",
      "outputs": [
        {
          "internalType": "uint256",
          "name": "id",
          "type": "uint256"
        },
        {
          "internalType": "string",
          "name": "hash",
          "type": "string"
        },
        {
          "internalType": "string",
          "name": "description",
          "type": "string"
        },
        {
          "internalType": "uint256",
          "name": "tipAmount",
          "type": "uint256"
        },
        {
          "internalType": "address payable",
          "name": "author",
          "type": "address"
        }
      ],
      "payable": false,
      "stateMutability": "view",
      "type": "function"
    },
    {
      "constant": true,
      "inputs": [],
      "name": "ipfsHash",
      "outputs": [
        {
          "internalType": "string",
          "name": "",
          "type": "string"
        }
      ],
      "payable": false,
      "stateMutability": "view",
      "type": "function"
    },
    {
      "constant": true,
      "inputs": [],
      "name": "ipfsHash1",
      "outputs": [
        {
          "internalType": "string",
          "name": "",
          "type": "string"
        }
      ],
      "payable": false,
      "stateMutability": "view",
      "type": "function"
    },
    {
      "constant": true,
      "inputs": [],
      "name": "name",
      "outputs": [
        {
          "internalType": "string",
          "name": "",
          "type": "string"
        }
      ],
      "payable": false,
      "stateMutability": "view",
      "type": "function"
    },
    {
      "constant": false,
      "inputs": [
        {
          "internalType": "string",
          "name": "_imgHash",
          "type": "string"
        },
        {
          "internalType": "string",
          "name": "_description",
          "type": "string"
        }
      ],
      "name": "uploadImage",
      "outputs": [],
      "payable": false,
      "stateMutability": "nonpayable",
      "type": "function"
    },
    {
      "constant": false,
      "inputs": [
        {
          "internalType": "uint256",
          "name": "_id",
          "type": "uint256"
        }
      ],
      "name": "tipImageOwner",
      "outputs": [],
      "payable": true,
      "stateMutability": "payable",
      "type": "function"
    },
    {
      "constant": false,
      "inputs": [
        {
          "internalType": "string",
          "name": "_ipfsHash",
          "type": "string"
        }
      ],
      "name": "setHash",
      "outputs": [],
      "payable": false,
      "stateMutability": "nonpayable",
      "type": "function"
    },
    {
      "constant": false,
      "inputs": [
        {
          "internalType": "string",
          "name": "_ipfsHash",
          "type": "string"
        }
      ],
      "name": "setHash1",
      "outputs": [],
      "payable": false,
      "stateMutability": "nonpayable",
      "type": "function"
    }
  ],
  "bytecode": "0x60806040526040518060400160405280600c81526020017f446563656e7472616772616d000000000000000000000000000000000000000081525060009080519060200190620000519291906200006b565b5060006003553480156200006457600080fd5b506200011a565b828054600181600116156101000203166002900490600052602060002090601f016020900481019282601f10620000ae57805160ff1916838001178555620000df565b82800160010185558215620000df579182015b82811115620000de578251825591602001919060010190620000c1565b5b509050620000ee9190620000f2565b5090565b6200011791905b8082111562000113576000816000905550600101620000f9565b5090565b90565b611295806200012a6000396000f3fe6080604052600436106100865760003560e01c80638567ade8116100595780638567ade81461038857806392053b63146103b6578063a91b8314146103e1578063c623674f14610540578063ef54c83f146105d057610086565b806306fdde031461008b5780631ed83fd41461011b5780637219e841146101a15780638485648214610227575b600080fd5b34801561009757600080fd5b506100a0610660565b6040518080602001828103825283818151815260200191508051906020019080838360005b838110156100e05780820151818401526020810190506100c5565b50505050905090810190601f16801561010d5780820380516001836020036101000a031916815260200191505b509250505060405180910390f35b34801561012757600080fd5b5061019f6004803603602081101561013e57600080fd5b810190808035906020019064010000000081111561015b57600080fd5b82018360208201111561016d57600080fd5b8035906020019184600183028401116401000000008311171561018f57600080fd5b90919293919293905050506106fe565b005b3480156101ad57600080fd5b50610225600480360360208110156101c457600080fd5b81019080803590602001906401000000008111156101e157600080fd5b8201836020820111156101f357600080fd5b8035906020019184600183028401116401000000008311171561021557600080fd5b9091929391929390505050610714565b005b34801561023357600080fd5b506102606004803603602081101561024a57600080fd5b810190808035906020019092919050505061072a565b6040518086815260200180602001806020018581526020018473ffffffffffffffffffffffffffffffffffffffff1673ffffffffffffffffffffffffffffffffffffffff168152602001838103835287818151815260200191508051906020019080838360005b838110156102e25780820151818401526020810190506102c7565b50505050905090810190601f16801561030f5780820380516001836020036101000a031916815260200191505b50838103825286818151815260200191508051906020019080838360005b8381101561034857808201518184015260208101905061032d565b50505050905090810190601f1680156103755780820380516001836020036101000a031916815260200191505b5097505050505050505060405180910390f35b6103b46004803603602081101561039e57600080fd5b81019080803590602001909291905050506108b0565b005b3480156103c257600080fd5b506103cb610d0b565b6040518082815260200191505060405180910390f35b3480156103ed57600080fd5b5061053e6004803603604081101561040457600080fd5b810190808035906020019064010000000081111561042157600080fd5b82018360208201111561043357600080fd5b8035906020019184600183028401116401000000008311171561045557600080fd5b91908080601f016020809104026020016040519081016040528093929190818152602001838380828437600081840152601f19601f820116905080830192505050505050509192919290803590602001906401000000008111156104b857600080fd5b8201836020820111156104ca57600080fd5b803590602001918460018302840111640100000000831117156104ec57600080fd5b91908080601f016020809104026020016040519081016040528093929190818152602001838380828437600081840152601f19601f820116905080830192505050505050509192919290505050610d11565b005b34801561054c57600080fd5b50610555610fba565b6040518080602001828103825283818151815260200191508051906020019080838360005b8381101561059557808201518184015260208101905061057a565b50505050905090810190601f1680156105c25780820380516001836020036101000a031916815260200191505b509250505060405180910390f35b3480156105dc57600080fd5b506105e5611058565b6040518080602001828103825283818151815260200191508051906020019080838360005b8381101561062557808201518184015260208101905061060a565b50505050905090810190601f1680156106525780820380516001836020036101000a031916815260200191505b509250505060405180910390f35b60008054600181600116156101000203166002900480601f0160208091040260200160405190810160405280929190818152602001828054600181600116156101000203166002900480156106f65780601f106106cb576101008083540402835291602001916106f6565b820191906000526020600020905b8154815290600101906020018083116106d957829003601f168201915b505050505081565b81816001919061070f9291906110f6565b505050565b8181600291906107259291906110f6565b505050565b6004602052806000526040600020600091509050806000015490806001018054600181600116156101000203166002900480601f0160208091040260200160405190810160405280929190818152602001828054600181600116156101000203166002900480156107dc5780601f106107b1576101008083540402835291602001916107dc565b820191906000526020600020905b8154815290600101906020018083116107bf57829003601f168201915b505050505090806002018054600181600116156101000203166002900480601f01602080910402602001604051908101604052809291908181526020018280546001816001161561010002031660029004801561087a5780601f1061084f5761010080835404028352916020019161087a565b820191906000526020600020905b81548152906001019060200180831161085d57829003601f168201915b5050505050908060030154908060040160009054906101000a900473ffffffffffffffffffffffffffffffffffffffff16905085565b6000811180156108c257506003548111155b6108cb57600080fd5b6108d3611176565b600460008381526020019081526020016000206040518060a001604052908160008201548152602001600182018054600181600116156101000203166002900480601f0160208091040260200160405190810160405280929190818152602001828054600181600116156101000203166002900480156109945780601f1061096957610100808354040283529160200191610994565b820191906000526020600020905b81548152906001019060200180831161097757829003601f168201915b50505050508152602001600282018054600181600116156101000203166002900480601f016020809104026020016040519081016040528092919081815260200182805460018160011615610100020316600290048015610a365780601f10610a0b57610100808354040283529160200191610a36565b820191906000526020600020905b815481529060010190602001808311610a1957829003601f168201915b50505050508152602001600382015481526020016004820160009054906101000a900473ffffffffffffffffffffffffffffffffffffffff1673ffffffffffffffffffffffffffffffffffffffff1673ffffffffffffffffffffffffffffffffffffffff168152505090506000816080015190508073ffffffffffffffffffffffffffffffffffffffff166108fc349081150290604051600060405180830381858888f19350505050158015610af0573d6000803e3d6000fd5b50348260600151018260600181815250508160046000858152602001908152602001600020600082015181600001556020820151816001019080519060200190610b3b9291906111bb565b506040820151816002019080519060200190610b589291906111bb565b506060820151816003015560808201518160040160006101000a81548173ffffffffffffffffffffffffffffffffffffffff021916908373ffffffffffffffffffffffffffffffffffffffff1602179055509050507f1be5317bca8d3f70dc1efe89958be71bff36cdca33fc00a6423e25eb2f1d492f83836020015184604001518560600151856040518086815260200180602001806020018581526020018473ffffffffffffffffffffffffffffffffffffffff1673ffffffffffffffffffffffffffffffffffffffff168152602001838103835287818151815260200191508051906020019080838360005b83811015610c61578082015181840152602081019050610c46565b50505050905090810190601f168015610c8e5780820380516001836020036101000a031916815260200191505b50838103825286818151815260200191508051906020019080838360005b83811015610cc7578082015181840152602081019050610cac565b50505050905090810190601f168015610cf45780820380516001836020036101000a031916815260200191505b5097505050505050505060405180910390a1505050565b60035481565b6000825111610d1f57600080fd5b6000815111610d2d57600080fd5b600073ffffffffffffffffffffffffffffffffffffffff163373ffffffffffffffffffffffffffffffffffffffff161415610d6757600080fd5b6003600081548092919060010191905055506040518060a001604052806003548152602001838152602001828152602001600081526020013373ffffffffffffffffffffffffffffffffffffffff16815250600460006003548152602001908152602001600020600082015181600001556020820151816001019080519060200190610df49291906111bb565b506040820151816002019080519060200190610e119291906111bb565b506060820151816003015560808201518160040160006101000a81548173ffffffffffffffffffffffffffffffffffffffff021916908373ffffffffffffffffffffffffffffffffffffffff1602179055509050507fc1d8dfa99b3f84f95d3f0bc4a768addeb97b83b20aef7f9cb6729e126bafd2f960035483836000336040518086815260200180602001806020018581526020018473ffffffffffffffffffffffffffffffffffffffff1673ffffffffffffffffffffffffffffffffffffffff168152602001838103835287818151815260200191508051906020019080838360005b83811015610f11578082015181840152602081019050610ef6565b50505050905090810190601f168015610f3e5780820380516001836020036101000a031916815260200191505b50838103825286818151815260200191508051906020019080838360005b83811015610f77578082015181840152602081019050610f5c565b50505050905090810190601f168015610fa45780820380516001836020036101000a031916815260200191505b5097505050505050505060405180910390a15050565b60018054600181600116156101000203166002900480601f0160208091040260200160405190810160405280929190818152602001828054600181600116156101000203166002900480156110505780601f1061102557610100808354040283529160200191611050565b820191906000526020600020905b81548152906001019060200180831161103357829003601f168201915b505050505081565b60028054600181600116156101000203166002900480601f0160208091040260200160405190810160405280929190818152602001828054600181600116156101000203166002900480156110ee5780601f106110c3576101008083540402835291602001916110ee565b820191906000526020600020905b8154815290600101906020018083116110d157829003601f168201915b505050505081565b828054600181600116156101000203166002900490600052602060002090601f016020900481019282601f1061113757803560ff1916838001178555611165565b82800160010185558215611165579182015b82811115611164578235825591602001919060010190611149565b5b509050611172919061123b565b5090565b6040518060a0016040528060008152602001606081526020016060815260200160008152602001600073ffffffffffffffffffffffffffffffffffffffff1681525090565b828054600181600116156101000203166002900490600052602060002090601f016020900481019282601f106111fc57805160ff191683800117855561122a565b8280016001018555821561122a579182015b8281111561122957825182559160200191906001019061120e565b5b509050611237919061123b565b5090565b61125d91905b80821115611259576000816000905550600101611241565b5090565b9056fea265627a7a72315820df365cb8c92dee09f34c49d6ce27c4cd4f186fd8a94a8651bbb76a17186f7cb364736f6c63430005100032",
  "source": "pragma solidity ^0.5.0;\n\ncontract Decentragram {\n  \n\tstring public name = \"Decentragram\";\n\tstring public ipfsHash;\n\tstring public ipfsHash1;\n\tuint public imageCount = 0;\n\tmapping(uint => Image) public  images; \n\n\t//events\n\tevent ImageCreated (\n\t\tuint id, \n\t\tstring hash, \n\t\tstring description, \n\t\tuint tipAmount, \n\t\taddress payable author\t\n\t); \n\n\tevent ImageTipped (\n\t\tuint id, \n\t\tstring hash, \n\t\tstring description, \n\t\tuint tipAmount, \n\t\taddress payable author\t\n\t); \n\n\n\t//Store Images\n\tstruct Image {\n\t\tuint id; \n\t\tstring hash;  \n\t\tstring description; \n\t\tuint tipAmount; \n\t\taddress payable author; \n\t}\n\n\n\t//Create Images \n\n\tfunction uploadImage (string memory  _imgHash, string memory _description) public {\n\n\t\t//Make  sure the image Hash exists\n\t\trequire(bytes(_imgHash).length > 0);\n\n\t\t//Make sure image description exists\n\t\trequire(bytes(_description).length > 0);\n\n\t\t//Make sure uploader address exists\n\t\trequire(msg.sender != address(0x0));\n\t\t//Increment image id \n\t\timageCount++;\n\n\t\t//Add Image to contract\n\t\timages[imageCount] = Image(imageCount, _imgHash, _description, 0, msg.sender);\n\t\temit ImageCreated(imageCount, _imgHash, _description, 0, msg.sender);\n\t}\n\n\n\t//Tip Images \n\tfunction tipImageOwner (uint _id) public payable {\n\t\t//Make sure the id is valid \n\t\trequire(_id > 0 && _id <= imageCount);\n\n\t\t//Fetch the image \n\t\tImage memory _image = images[_id];\n\n\t\t//Fetch the author\n\t\taddress payable _author =  _image.author;\n\n\t\t//Pay the author by sending them Ether\n\t\taddress(_author).transfer(msg.value);\n\n\t\t//Increment the tip amount\n\t\t_image.tipAmount = _image.tipAmount + msg.value;\n\n\t\t//Update the image\n\t\timages[_id]= _image;\n\t\n\t\t//Trigger event  ImageTipped\n\t\temit ImageTipped(_id, _image.hash, _image.description, _image.tipAmount, _author);\n\n\t}\n\n\tfunction setHash(string calldata _ipfsHash) external {\n\t\tipfsHash = _ipfsHash;\n\t}\n\n\tfunction setHash1(string calldata _ipfsHash) external {\n\t\tipfsHash1 = _ipfsHash;\n\t}\n\n}\n\n\n\n",
  "sourcePath": "/Users/goudurix/decentragram/src/contracts/Decentragram.sol",
  "compiler": {
    "name": "solc",
    "version": "0.5.16+commit.9c3226ce.Emscripten.clang"
  },
  "schemaVersion": "3.2.0",
  "updatedAt": "2020-11-26T21:13:21.255Z",
  "networkType": "ethereum",
  "devdoc": {
    "methods": {}
  },
  "userdoc": {
    "methods": {}
  }
}